{
  "_format": "hh-sol-artifact-1",
  "contractName": "BuyMeCoffee",
  "sourceName": "contracts/buyMeCoffee.sol",
  "abi": [
    {
      "inputs": [],
      "stateMutability": "nonpayable",
      "type": "constructor"
    },
    {
      "anonymous": false,
      "inputs": [
        {
          "indexed": true,
          "internalType": "address",
          "name": "from",
          "type": "address"
        },
        {
          "indexed": false,
          "internalType": "uint256",
          "name": "timestamp",
          "type": "uint256"
        },
        {
          "indexed": false,
          "internalType": "string",
          "name": "name",
          "type": "string"
        },
        {
          "indexed": false,
          "internalType": "string",
          "name": "message",
          "type": "string"
        }
      ],
      "name": "NewMemo",
      "type": "event"
    },
    {
      "anonymous": false,
      "inputs": [
        {
          "indexed": false,
          "internalType": "uint256",
          "name": "amount",
          "type": "uint256"
        },
        {
          "indexed": false,
          "internalType": "uint256",
          "name": "when",
          "type": "uint256"
        }
      ],
      "name": "Withdrawal",
      "type": "event"
    },
    {
      "inputs": [
        {
          "internalType": "string",
          "name": "_name",
          "type": "string"
        },
        {
          "internalType": "string",
          "name": "_message",
          "type": "string"
        }
      ],
      "name": "buyCoffee",
      "outputs": [],
      "stateMutability": "payable",
      "type": "function"
    },
    {
      "inputs": [],
      "name": "getMemos",
      "outputs": [
        {
          "components": [
            {
              "internalType": "address",
              "name": "from",
              "type": "address"
            },
            {
              "internalType": "uint256",
              "name": "timestamp",
              "type": "uint256"
            },
            {
              "internalType": "string",
              "name": "name",
              "type": "string"
            },
            {
              "internalType": "string",
              "name": "message",
              "type": "string"
            }
          ],
          "internalType": "struct BuyMeCoffee.Memo[]",
          "name": "",
          "type": "tuple[]"
        }
      ],
      "stateMutability": "view",
      "type": "function"
    },
    {
      "inputs": [],
      "name": "withdraw",
      "outputs": [],
      "stateMutability": "nonpayable",
      "type": "function"
    }
  ],
  "bytecode": "0x608060405234801561001057600080fd5b5033600160006101000a81548173ffffffffffffffffffffffffffffffffffffffff021916908373ffffffffffffffffffffffffffffffffffffffff160217905550610ccf806100616000396000f3fe6080604052600436106100345760003560e01c8063204206e1146100395780633ccfd60b14610055578063865c51721461006c575b600080fd5b610053600480360381019061004e91906105e9565b610097565b005b34801561006157600080fd5b5061006a610211565b005b34801561007857600080fd5b506100816102ac565b60405161008e9190610866565b60405180910390f35b600034116100da576040517f08c379a00000000000000000000000000000000000000000000000000000000081526004016100d1906108e5565b60405180910390fd5b600060405180608001604052803373ffffffffffffffffffffffffffffffffffffffff16815260200142815260200184815260200183815250908060018154018082558091505060019003906000526020600020906004020160009091909190915060008201518160000160006101000a81548173ffffffffffffffffffffffffffffffffffffffff021916908373ffffffffffffffffffffffffffffffffffffffff1602179055506020820151816001015560408201518160020190816101a29190610b11565b5060608201518160030190816101b89190610b11565b5050503373ffffffffffffffffffffffffffffffffffffffff167fc56140e05f516509ae28110e0f72e17558a7561630dad2647c3ae87d986e365c42848460405161020593929190610c2b565b60405180910390a25050565b600160009054906101000a900473ffffffffffffffffffffffffffffffffffffffff1673ffffffffffffffffffffffffffffffffffffffff166108fc479081150290604051600060405180830381858888f1935050505061027157600080fd5b7fbf2ed60bd5b5965d685680c01195c9514e4382e28e3a5a2d2d5244bf59411b9347426040516102a2929190610c70565b60405180910390a1565b60606000805480602002602001604051908101604052809291908181526020016000905b8282101561048657838290600052602060002090600402016040518060800160405290816000820160009054906101000a900473ffffffffffffffffffffffffffffffffffffffff1673ffffffffffffffffffffffffffffffffffffffff1673ffffffffffffffffffffffffffffffffffffffff1681526020016001820154815260200160028201805461036390610934565b80601f016020809104026020016040519081016040528092919081815260200182805461038f90610934565b80156103dc5780601f106103b1576101008083540402835291602001916103dc565b820191906000526020600020905b8154815290600101906020018083116103bf57829003601f168201915b505050505081526020016003820180546103f590610934565b80601f016020809104026020016040519081016040528092919081815260200182805461042190610934565b801561046e5780601f106104435761010080835404028352916020019161046e565b820191906000526020600020905b81548152906001019060200180831161045157829003601f168201915b505050505081525050815260200190600101906102d0565b50505050905090565b6000604051905090565b600080fd5b600080fd5b600080fd5b600080fd5b6000601f19601f8301169050919050565b7f4e487b7100000000000000000000000000000000000000000000000000000000600052604160045260246000fd5b6104f6826104ad565b810181811067ffffffffffffffff82111715610515576105146104be565b5b80604052505050565b600061052861048f565b905061053482826104ed565b919050565b600067ffffffffffffffff821115610554576105536104be565b5b61055d826104ad565b9050602081019050919050565b82818337600083830152505050565b600061058c61058784610539565b61051e565b9050828152602081018484840111156105a8576105a76104a8565b5b6105b384828561056a565b509392505050565b600082601f8301126105d0576105cf6104a3565b5b81356105e0848260208601610579565b91505092915050565b60008060408385031215610600576105ff610499565b5b600083013567ffffffffffffffff81111561061e5761061d61049e565b5b61062a858286016105bb565b925050602083013567ffffffffffffffff81111561064b5761064a61049e565b5b610657858286016105bb565b9150509250929050565b600081519050919050565b600082825260208201905092915050565b6000819050602082019050919050565b600073ffffffffffffffffffffffffffffffffffffffff82169050919050565b60006106b88261068d565b9050919050565b6106c8816106ad565b82525050565b6000819050919050565b6106e1816106ce565b82525050565b600081519050919050565b600082825260208201905092915050565b60005b83811015610721578082015181840152602081019050610706565b60008484015250505050565b6000610738826106e7565b61074281856106f2565b9350610752818560208601610703565b61075b816104ad565b840191505092915050565b600060808301600083015161077e60008601826106bf565b50602083015161079160208601826106d8565b50604083015184820360408601526107a9828261072d565b915050606083015184820360608601526107c3828261072d565b9150508091505092915050565b60006107dc8383610766565b905092915050565b6000602082019050919050565b60006107fc82610661565b610806818561066c565b9350836020820285016108188561067d565b8060005b85811015610854578484038952815161083585826107d0565b9450610840836107e4565b925060208a0199505060018101905061081c565b50829750879550505050505092915050565b6000602082019050818103600083015261088081846107f1565b905092915050565b600082825260208201905092915050565b7f63616e27742062757920636f6666656520776974682030206574682121000000600082015250565b60006108cf601d83610888565b91506108da82610899565b602082019050919050565b600060208201905081810360008301526108fe816108c2565b9050919050565b7f4e487b7100000000000000000000000000000000000000000000000000000000600052602260045260246000fd5b6000600282049050600182168061094c57607f821691505b60208210810361095f5761095e610905565b5b50919050565b60008190508160005260206000209050919050565b60006020601f8301049050919050565b600082821b905092915050565b6000600883026109c77fffffffffffffffffffffffffffffffffffffffffffffffffffffffffffffffff8261098a565b6109d1868361098a565b95508019841693508086168417925050509392505050565b6000819050919050565b6000610a0e610a09610a04846106ce565b6109e9565b6106ce565b9050919050565b6000819050919050565b610a28836109f3565b610a3c610a3482610a15565b848454610997565b825550505050565b600090565b610a51610a44565b610a5c818484610a1f565b505050565b5b81811015610a8057610a75600082610a49565b600181019050610a62565b5050565b601f821115610ac557610a9681610965565b610a9f8461097a565b81016020851015610aae578190505b610ac2610aba8561097a565b830182610a61565b50505b505050565b600082821c905092915050565b6000610ae860001984600802610aca565b1980831691505092915050565b6000610b018383610ad7565b9150826002028217905092915050565b610b1a826106e7565b67ffffffffffffffff811115610b3357610b326104be565b5b610b3d8254610934565b610b48828285610a84565b600060209050601f831160018114610b7b5760008415610b69578287015190505b610b738582610af5565b865550610bdb565b601f198416610b8986610965565b60005b82811015610bb157848901518255600182019150602085019450602081019050610b8c565b86831015610bce5784890151610bca601f891682610ad7565b8355505b6001600288020188555050505b505050505050565b610bec816106ce565b82525050565b6000610bfd826106e7565b610c078185610888565b9350610c17818560208601610703565b610c20816104ad565b840191505092915050565b6000606082019050610c406000830186610be3565b8181036020830152610c528185610bf2565b90508181036040830152610c668184610bf2565b9050949350505050565b6000604082019050610c856000830185610be3565b610c926020830184610be3565b939250505056fea264697066735822122071992c11abe278ff8bf2e67713557f2fefa45846a926206c0fa8de7fe2c9a01564736f6c63430008110033",
  "linkReferences": {},
  "deployedLinkReferences": {}
}